:100000000C945D000C9485000C9485000C94850084
:100010000C9485000C9485000C9485000C9485004C
:100020000C9485000C9485000C9485000C943F087A
:100030000C9485000C9485000C9485000C9485002C
:100040000C94DA060C9485000C94A8060C94820695
:100050000C9485000C9485000C9485000C9485000C
:100060000C9424070C948500000000002400270055
:100070002A0000000000250028002B0004040404CE
:100080000404040402020202020203030303030342
:10009000010204081020408001020408102001021F
:1000A00004081020000000080002010000030407FB
:1000B0000000000000000000FB0811241FBECFEF6D
:1000C000D8E0DEBFCDBF11E0A0E0B1E0E8E6FDE1A1
:1000D00002C005900D92A038B107D9F723E0A0E83F
:1000E000B1E001C01D92A430B207E1F710E0CDE508
:1000F000D0E004C02197FE010E94AC0ECC35D107A0
:10010000C9F70E947F090C94B20E0C9400008F92E4
:100110009F92AF92BF92FF920F931F93CF93DF9363
:10012000F09001032BE02F1508F44CC0209103033D
:1001300008E512E0021B110927FD1395000F111F9E
:10014000000F111F20910203C8E8D0E0C21BD109A3
:1001500027FDD395CC0FDD1FCC0FDD1F4E010D2EDB
:10016000000CAA08BB089801012E000C440B550B8B
:10017000281939094A095B09DC010E942B0C24EB80
:1001800030E040E050E00E94010C820E931EA41E5D
:10019000B51E8C169D062CF0E801801691060CF415
:1001A000E4012297CC0FDD1F2FB7F8948F2D90E03C
:1001B000FC01EE0FFF1FE80FF91FE053FD4FD28344
:1001C000C1832FBFDF91CF911F910F91FF90BF90FF
:1001D000AF909F908F900895AF92BF92CF92DF9291
:1001E000EF92FF920F931F93CF93DF936C017B01EC
:1001F0008B01040F151FEB015E01AE18BF08C0177D
:10020000D10759F06991D601ED91FC910190F081EF
:10021000E02DC6010995892B79F7C501DF91CF91B2
:100220001F910F91FF90EF90DF90CF90BF90AF9014
:100230000895FC01538D448D252F30E0842F90E0EC
:10024000821B930B541710F0CF96089501970895D1
:10025000FC01918D828D981761F0A28DAE0FBF2F9A
:10026000B11D5D968C91928D9F5F9F73928F90E0F0
:1002700008958FEF9FEF0895FC01918D828D98175F
:1002800031F0828DE80FF11D858D90E008958FEF9C
:100290009FEF0895FC01918D228D892F90E0805C65
:1002A0009F4F821B91098F739927089587E292E0EF
:1002B0000E944A0121E0892B09F420E0822F089551
:1002C00080E090E0892B29F00E94560181110C9466
:1002D00000000895FC01A48DA80FB92FB11DA35AE9
:1002E000BF4F2C91848D90E001968F739927848F56
:1002F000A689B7892C93A089B1898C918370806479
:100300008C93938D848D981306C00288F389E02D19
:1003100080818F7D80830895EF92FF920F931F93CA
:10032000CF93DF93EC0181E0888F9B8D8C8D9813A8
:100330001AC0E889F989808185FF15C09FB7F894B4
:10034000EE89FF896083E889F98980818370806400
:1003500080839FBF81E090E0DF91CF911F910F914B
:10036000FF90EF900895F62E0B8D10E00F5F1F4F5A
:100370000F731127E02E8C8D8E110CC00FB607FC69
:10038000FACFE889F989808185FFF5CFCE010E94F7
:100390006A01F1CFEB8DEC0FFD2FF11DE35AFF4FFA
:1003A000F0829FB7F8940B8FEA89FB898081806285
:1003B000CFCFCF93DF93EC01888D8823B9F0AA8942
:1003C000BB89E889F9898C9185FD03C0808186FD10
:1003D0000DC00FB607FCF7CF8C9185FFF2CF80815F
:1003E00085FFEDCFCE010E946A01E9CFDF91CF9169
:1003F000089590E0FC01EC55FF4F2491FC01E0577B
:10040000FF4F3491FC01E458FF4FE491EE23C9F013
:10041000222339F0233001F1A8F4213019F12230E0
:1004200029F1F0E0EE0FFF1FEE58FF4FA591B491B8
:100430008FB7F894EC91611126C030953E233C9320
:100440008FBF08952730A9F02830C9F0243049F72C
:10045000809180008F7D03C0809180008F77809392
:100460008000DFCF84B58F7784BDDBCF84B58F7DEF
:10047000FBCF8091B0008F778093B000D2CF809176
:10048000B0008F7DF9CF3E2BDACFCF93DF9390E092
:10049000FC01E057FF4F249184589F4FFC01849149
:1004A0008823D1F090E0880F991FFC01E859FF4F95
:1004B000A591B491FC01EE58FF4FC591D491611103
:1004C0000EC09FB7F8948C91E22FE0958E238C9309
:1004D0002881E223E8839FBFDF91CF9108958FB7F2
:1004E000F894EC91E22BEC938FBFF6CF8E508064A2
:1004F00080937C0080917A00806480937A00809160
:100500007A0086FDFCCF8091780090917900089563
:100510003FB7F89480911B0290911C02A0911D029C
:10052000B0911E0226B5A89B05C02F3F19F0019679
:10053000A11DB11D3FBFBA2FA92F982F8827BC013D
:10054000CD01620F711D811D911D42E0660F771F65
:10055000881F991F4A95D1F708958F929F92AF9265
:10056000BF92CF92DF92EF92FF924B015C010E940B
:1005700088026B017C010E9488026C197D098E093A
:100580009F09683E734081059105A8F321E0821A16
:100590009108A108B10888EEC80E83E0D81EE11CBE
:1005A000F11C81149104A104B10429F7FF90EF908C
:1005B000DF90CF90BF90AF909F908F900895089557
:1005C0001F93CF93DF93C1E0C0938201882399F1F9
:1005D000D091B8001091BA008091BC008A7B8093C2
:1005E000BC0060E082E10E94F90160E083E10E94CA
:1005F000F9011092EC01C093EB011092C60161E089
:1006000082E10E94F90161E083E10E94F901809199
:10061000B9008E7F8093B9008091B9008D7F80935F
:10062000B90088E48093B80085E48093BC001093FF
:10063000BA00D093B800DF91CF911F910895209117
:10064000A301260F3327331F21323105ECF420910B
:10065000EC01FC0190E080E0243069F082E0089534
:10066000A091A3012191AC014D575E4FA40FB52F6E
:10067000B11D2C930196861798F38091A301680F02
:100680006093A30180E0089581E0089508958FEFBD
:100690009FEF08958FEF9FEF08958091810190E083
:1006A0009195819591090895CF92DF92EF92FF92F3
:1006B0000F931F93CF93DF937C01CB018A0120918D
:1006C000F201222389F0EB016B01C40ED51ECC157B
:1006D000DD0569F06991D701ED91FC910190F08100
:1006E000E02DC7010995F3CF642F0E941F03C801B5
:1006F000DF91CF911F910F91FF90EF90DF90CF90FE
:100700000895CF93DF931F92CDB7DEB76983209111
:10071000F2012223F9F020911502203258F021E055
:1007200030E0FC013383228390E080E00F90DF9182
:10073000CF9108958091F301E82FF0E0EC50FE4F47
:10074000998190838F5F8093F3018093150281E0FC
:1007500090E0ECCF61E0CE0101960E941F03F7CF3D
:10076000CF92DF92EF92FF920F931F93CF93DF937D
:10077000FC01C48121E02093F201C0931402109285
:10078000F301109215028385682B84EC92E00E949D
:100790008103D0911502D13208F092C00E948802E4
:1007A0006B017C018091EC01811165C082E0809336
:1007B000EC0181E08093EB018FEF8093EA011092CE
:1007C000E901D093E801A4EFB1E0E8ECF1E080E0CA
:1007D000D81385C01092C7018091C701CC0FC82BD8
:1007E000C093C7018091C601813009F07CC010928E
:1007F000C6010E9488026B017C018091C701809331
:10080000BB008091EE019091EF01A091F001B091B9
:10081000F101892B8A2B8B2B99F00E948802009181
:10082000EE011091EF012091F0013091F1016C196E
:100830007D098E099F090617170728073907E0F178
:100840008091BC0083FDD9CF85EC8093BC000E94D1
:1008500088026B017C018091EC01823009F445C073
:100860008091EA018F3F61F18091EA01803241F18C
:100870008091EA0125C08091EE019091EF01A09155
:10088000F001B091F101892B8A2B8B2B09F48ACFCF
:100890000E9488020091EE011091EF012091F00179
:1008A0003091F1016C197D098E099F090617170710
:1008B0002807390708F076CF8091ED010E94E00209
:1008C0001092F301109215021092F201DF91CF9174
:1008D0001F910F91FF90EF90DF90CF9008959D9121
:1008E00091938F5F75CF85EEB0CF8091EE0190919F
:1008F000EF01A091F001B091F101892B8A2B8B2B94
:1009000009F4A9CF0E9488020091EE011091EF0135
:100910002091F0013091F1016C197D098E099F0938
:10092000061717072807390708F095CFC5CF90E0BD
:1009300080E00895FB0101900020E9F73197AF01B5
:10094000461B570BDC01ED91FC910280F381E02DF9
:1009500009948F929F92AF92BF92EF92FF920F9362
:100960001F93CF93DF93CDB7DEB7A1970FB6F8945F
:10097000DEBF0FBECDBF7C01FA01CB0119A2223030
:1009800008F42AE08E010F5D1F4F822E912CB12CAE
:10099000A12CBF01A50194010E94330CF901CA01E9
:1009A0006A300CF5605DD8016E938D01232B242BEA
:1009B000252B79F790E080E0109721F0BD01C70169
:1009C0000E949A04A1960FB6F894DEBF0FBECDBF69
:1009D000DF91CF911F910F91FF90EF90BF90AF905B
:1009E0009F908F900895695CDECF2F923F924F9237
:1009F0005F926F927F928F929F92AF92BF92CF92AF
:100A0000DF92EF92FF921F93CF93DF93EC016A0185
:100A10007B01722EAB019601CB01B6010E949B0EA9
:100A200068E371E0811126C046015701E894B7F8E8
:100A30002FEF3FEF4FE75FE7C501B4010E949B0E28
:100A400081110CC02FEF3FEF4FE75FE7C501B40105
:100A50000E94D10C6CE371E0181664F02FEF3FEFA9
:100A60004FE75FE4C701B6010E94290E1816B4F4DF
:100A700060E471E0CE01DF91CF911F91FF90EF9084
:100A8000DF90CF90BF90AF909F908F907F906F90AE
:100A90005F904F903F902F900C949A042FEF3FEF70
:100AA0004FE75FECC701B6010E94D10C87FDE0CF94
:100AB00020E030E0A901C701B6010E94D10C312C21
:100AC000212C87FF0DC0E881F9810190F081E02D94
:100AD0006DE2CE0109951C01F7FAF094F7F8F09455
:100AE00010E060E070E080E09FE3711641F020E0EC
:100AF00030E040E251E40E94D60C1F5FF6CFA70120
:100B000096010E94650C2B013C010E94480D4B018F
:100B10005C012AE0BC01A401CE010E94A9047C0171
:100B2000E20CF31C1123E1F1C501B4010E94770D21
:100B30009B01AC01C301B2010E94640C4B015C013A
:100B4000E881F9810190F081E02D6EE2CE010995F6
:100B5000E80EF91E115020F120E030E040E251E4AF
:100B6000C501B4010E942E0E2B013C010E94480DCC
:100B70004B01B12CA12C2AE0B501A401CE010E94A9
:100B8000A904E80EF91EC501B4010E94770D9B016E
:100B9000AC01C301B2010E94640C4B015C01DACFCD
:100BA000C701DF91CF911F91FF90EF90DF90CF9021
:100BB000BF90AF909F908F907F906F905F904F907D
:100BC0003F902F9008950F931F93CF938C01C62FC2
:100BD0000E94B0036C2F6460C8010E94B0036C2FA8
:100BE0006B7FC8010E94B00383EC90E00197F1F79E
:100BF000CF911F910F9108950F931F93CF93DF9380
:100C00008C01D62FC42F607F642B0E94E30580E106
:100C1000D89FB00111246C2BC801DF91CF911F9197
:100C20000F910C94E305CF93DF93CDB7DEB72897F0
:100C30000FB6F894DEBF0FBECDBF98E0E0E0F1E064
:100C4000DE01119601900D929A95E1F79091FD02C7
:100C5000981708F48FEF90E0880F991F21E030E09B
:100C60002C0F3D1F820F931FFC016081606840E0E4
:100C700085EF92E028960FB6F894DEBF0FBECDBF89
:100C8000DF91CF910C94FC0541E00E94FC0581E0CE
:100C900090E0089585ED8093BC008091EE019091E5
:100CA000EF01A091F001B091F1010796A11DB11DD6
:100CB00023E0B695A795979587952A95D1F720912A
:100CC000BC0024FD03C01092EC0108954091EE0198
:100CD0005091EF016091F0017091F101452B462B8D
:100CE000472B69F30097A105B10541F025E32A954B
:100CF000F1F700000197A109B109E1CF8091ED0161
:100D00000C94E0021F920F920FB60F9211242F93B2
:100D10003F934F935F936F937F938F939F93AF9383
:100D2000BF93EF93FF9387E292E00E946A01FF91E5
:100D3000EF91BF91AF919F918F917F916F915F9153
:100D40004F913F912F910F900FBE0F901F901895CC
:100D50001F920F920FB60F9211242F938F939F9390
:100D6000EF93FF93E0913702F09138028081E09198
:100D70003D02F0913E0282FD1BC0908180914002B5
:100D80008F5F8F7320914102821741F0E091400202
:100D9000F0E0E95DFD4F958F80934002FF91EF9168
:100DA0009F918F912F910F900FBE0F901F901895CC
:100DB0008081F4CF1F920F920FB60F9211242F93C0
:100DC0003F938F939F93AF93BF938091170290911E
:100DD0001802A0911902B0911A023091160223E074
:100DE000230F2D3758F50196A11DB11D2093160232
:100DF0008093170290931802A0931902B0931A02DD
:100E000080911B0290911C02A0911D02B0911E02C4
:100E10000196A11DB11D80931B0290931C02A0930B
:100E20001D02B0931E02BF91AF919F918F913F9190
:100E30002F910F900FBE0F901F90189526E8230F4B
:100E40000296A11DB11DD2CF1F920F920FB60F9225
:100E500011242F933F934F935F936F937F938F93BF
:100E60009F93AF93BF93EF93FF938091B900887FD7
:100E7000803609F44AC0F0F5883209F4A5C018F5A7
:100E8000803109F499C0B8F4882309F4F5C088309A
:100E900009F492C0FF91EF91BF91AF919F918F9113
:100EA0007F916F915F914F913F912F910F900FBE66
:100EB0000F901F901895883109F486C0803251F741
:100EC0008093EA0114C0803409F49BC040F480335D
:100ED000B9F38833F9F68093EA0185ECAEC080352A
:100EE00009F483C0883509F494C0883499F60E94C7
:100EF0004A06D0CF883909F48AC038F5883729F0F6
:100F000050F4883611F0803729F683E08093EC01A5
:100F10001092C50155C0883809F479C0803919F09C
:100F2000803809F0B7CF8091C501803208F06FC0DA
:100F3000E091C50181E08E0F8093C5018091BB00D7
:100F4000F0E0EB55FE4F80833BC0803B39F0D0F49E
:100F5000803A09F477C0883A09F09CCF84E0809306
:100F6000EC011092A4011092A301F0E0E0E00995D9
:100F70008091A30181110FC081E08093A3011092A1
:100F8000830109C0803C09F4A8CF883C09F4A5CFAF
:100F9000883B09F07FCFE091A40181E08E0F809320
:100FA000A401F0E0ED57FE4F80818093BB0090914B
:100FB000A4018091A30129C08091C7018093BB0047
:100FC00085EC8093BC0066CF9091E9018091E801A7
:100FD000981758F5E091E90181E08E0F8093E901BF
:100FE000F0E0E853FE4F8081E9CFE091E90181E034
:100FF0008E0F8093E9018091BB00F0E0E853FE4F33
:1010000080839091E9018091E8019817C8F285E802
:10101000D8CFE091E90181E08E0F8093E9018091C2
:10102000BB00F0E0E853FE4F80838091EB0181111B
:101030005ECF81E08093C60184EA8093BC00109269
:10104000EC0128CF85EC8093BC001092EC018091DC
:10105000C501803230F4E091C501F0E0EB55FE4F60
:1010600010826091C50170E085EA91E0F0E0E0E077
:1010700009951092C5010ECF1092EA0138CF1F9248
:101080000F920FB60F9211242F933F934F935F93BC
:101090006F937F938F939F93AF93BF93CF93DF9380
:1010A000EF93FF9380918001C091F402D0E087FF1D
:1010B00024C01092850010928400809180018F5F7F
:1010C0008093800180918001082E000C990B8C1771
:1010D0009D0724F4809180018C30C4F180918400BC
:1010E00090918500049680349C4908F47AC08091E0
:1010F000840090918500049676C080918001082E2E
:10110000000C990B8C179D07C4F6E09180018E2F7F
:10111000EE0F990BFC01EE0FFF1FE80FF91FE053D4
:10112000FD4F808186FFC9CFE09180018E2FEE0FA9
:10113000990BFC01EE0FFF1FE80FF91FE053FD4F65
:10114000808160E08F730E94F901B7CF2091840005
:1011500030918500E09180018E2FEE0F990BFC01FC
:10116000EE0FFF1FE80FF91FE053FD4F81819281C1
:10117000820F931F9093890080938800E0918001F3
:101180008E2FEE0F990BFC01EE0FFF1FE80FF91FDA
:10119000E053FD4F808186FF11C0E09180018E2FCA
:1011A000EE0F990BFC01EE0FFF1FE80FF91FE05344
:1011B000FD4F808161E08F730E94F901FF91EF91F3
:1011C000DF91CF91BF91AF919F918F917F916F915F
:1011D0005F914F913F912F910F900FBE0F901F90F5
:1011E000189580E49CE990938900809388008FEFA4
:1011F00080938001E3CF10922A021092290288EE98
:1012000093E0A0E0B0E080932B0290932C02A09397
:101210002D02B0932E022CE031E03093280220936F
:10122000270225EC30E0309334022093330224EC83
:1012300030E0309336022093350220EC30E03093DA
:1012400038022093370221EC30E030933A022093A9
:10125000390222EC30E030933C0220933B0226EC32
:1012600030E030933E0220933D02109240021092F3
:10127000410210924202109243021092C702109251
:10128000C6028093C8029093C902A093CA02B09389
:10129000CB028EE191E09093C5028093C4028091CD
:1012A000F4028C3040F591E0980F9093F402809313
:1012B000010390E0FC01EE0FFF1FE80FF91FE05360
:1012C000FD4F88EB9BE0928381831092F80210928D
:1012D000F70280E391E09093F6028093F50287E2B3
:1012E0008093F90280E18093FE0282E08093FF0206
:1012F0001092000308958FEF80930103E6CF789456
:1013000084B5826084BD84B5816084BD85B582600A
:1013100085BD85B5816085BD80916E0081608093BB
:101320006E00109281008091810082608093810024
:101330008091810081608093810080918000816034
:10134000809380008091B10084608093B10080918F
:10135000B00081608093B00080917A0084608093B7
:101360007A0080917A00826080937A0080917A007E
:10137000816080937A0080917A00806880937A00FF
:101380001092C100E0913702F091380212E0108310
:10139000E0913302F09134021082E0913502F09135
:1013A00036028FEC808310923F02E0913B02F09175
:1013B0003C0286E08083E0913902F0913A0280811C
:1013C00080618083E0913902F0913A0280818860E7
:1013D0008083E0913902F0913A02808180688083B5
:1013E000E0913902F0913A0280818F7D808360E044
:1013F0008EE00E94450260E08FE00E94450261E0BD
:1014000086E00E9445028091FA0288608093FA0289
:101410001093FD0262E370E080E090E00E94AD0274
:101420006091000385EF92E00E94B00368EE73E0E4
:1014300080E090E00E94AD0260E385EF92E00E94C0
:10144000E305CBE4D6E4CE010197F1F760E385EF45
:1014500092E00E94E3052197F1F760E385EF92E0C7
:101460000E94E30583E592E00197F1F760E285EFE2
:1014700092E00E94E3056091FA02606240E085EF2D
:1014800092E00E94FC0584E08093FB0240E06CE067
:1014900085EF92E00E94FC0540E061E085EF92E07C
:1014A0000E94FC05CBE3DFE1CE010197F1F7109339
:1014B000FC0240E066E085EF92E00E94FC0540E01F
:1014C00062E085EF92E00E94FC052197F1F788E049
:1014D0008093000360E085EF92E00E94B00380916A
:1014E00001038C3008F051C061E089E00E944502A0
:1014F00080910103282F30E0F901EE0FFF1FE20F6A
:10150000F31FE053FD4F9081907C9960908310927F
:101510000203109203032CE0622F0E94A00E829F10
:10152000B001112430E020E0AB01420F531FFA015B
:10153000EE0FFF1FE40FF51FE053FD4F908196FD66
:1015400016C02F5F3F4F2C30310571F781110FC04E
:101550001092800082E080938100109285001092AA
:101560008400B19A80916F00826080936F00E09157
:1015700001038E2F90E0FC01EE0FFF1FE80FF91F13
:10158000E053FD4F80818064808390E080E00E9482
:10159000870060ED77E080E090E00E94AD020BE311
:1015A0001FE1C0E0D0E08FE00E947602BC01990FFD
:1015B000880B990B0E94790D20E030EC4FE754E442
:1015C0000E94D60C20E030E04AE754E40E942E0E40
:1015D0006093230270932402809325029093260245
:1015E0008EE00E947602BC01990F880B990B0E9435
:1015F000790D20E030EC4FE754E40E94D60C20E057
:1016000030E04AE754E40E942E0E60931F0270936C
:101610002002809321029093220264E471E087E229
:1016200092E00E949A04409123025091240260911A
:1016300025027091260222E087E292E00E94F504E2
:101640006CE571E087E292E00E949A046AE471E03E
:1016500087E292E00E949A046DE471E087E292E0F2
:101660000E949A0440911F02509120026091210231
:101670007091220222E087E292E00E94F5046CE57C
:1016800071E087E292E00E949A046AE471E087E2E6
:1016900092E00E949A0480E00E94130666E571E0E1
:1016A00085EF92E00E949A04409123025091240217
:1016B000609125027091260222E085EF92E00E945F
:1016C000F5046BE571E085EF92E00E949A0481E0F9
:1016D0000E94130660E671E085EF92E00E949A0492
:1016E00040911F02509120026091210270912202CC
:1016F00022E085EF92E00E94F5046BE571E085EF52
:1017000092E00E949A04C0902302D0902402E090BC
:101710002502F090260220E030E04AEF53E4C701B2
:10172000B6010E94D10C87FD10C020E030E048E4F3
:1017300053E460911F0270912002809121029091E8
:1017400022020E94D10C87FF04C090E080E00E943A
:10175000870020E030E04AEF53E4C701B6010E9461
:10176000290E87FF10C020E030E048E453E4609188
:101770001F027091200280912102909122020E940A
:10178000290E87FD2DC084EB90E00E94870040E089
:1017900061E085EF92E00E94FC05C8010197F1F736
:1017A00080E00E94130667E671E085EF92E00E94F8
:1017B0009A0481E00E94130664E771E085EF92E0ED
:1017C0000E949A0461E086E00E94F90160ED77E0F2
:1017D00080E090E00E94AD0260E086E00E94F901A6
:1017E00064EF71E080E090E00E94AD02209709F480
:1017F000DACE0E945601882309F4D5CE0E9400005B
:10180000D2CE052E97FB1EF400940E94180C57FDB3
:1018100007D00E94330C07FC03D04EF40C94180C34
:1018200050954095309521953F4F4F4F5F4F08950C
:1018300090958095709561957F4F8F4F9F4F08953C
:101840000E94550CA59F900DB49F900DA49F800DF4
:10185000911D11240895B7FF0C94200C0E94200CB8
:10186000821B930B0895A1E21A2EAA1BBB1BFD013C
:101870000DC0AA1FBB1FEE1FFF1FA217B307E4076F
:10188000F50720F0A21BB30BE40BF50B661F771FC7
:10189000881F991F1A9469F76095709580959095A7
:1018A0009B01AC01BD01CF010895A29FB001B39F80
:1018B000C001A39F700D811D1124911DB29F700D59
:1018C000811D1124911D08955058BB27AA270E94FD
:1018D0007C0C0C94EF0D0E94E10D38F00E94E80D95
:1018E00020F039F49F3F19F426F40C94DE0D0EF429
:1018F000E095E7FB0C94D80DE92F0E94000E58F3F9
:10190000BA17620773078407950720F079F4A6F5E4
:101910000C94220E0EF4E0950B2EBA2FA02D0B0185
:10192000B90190010C01CA01A0011124FF27591B24
:1019300099F0593F50F4503E68F11A16F040A22F2A
:10194000232F342F4427585FF3CF4695379527959B
:10195000A795F0405395C9F77EF41F16BA0B620B9A
:10196000730B840BBAF09150A1F0FF0FBB1F661FE1
:10197000771F881FC2F70EC0BA0F621F731F841F24
:1019800048F4879577956795B795F7959E3F08F04A
:10199000B0CF9395880F08F09927EE0F979587950C
:1019A00008950E94B40D08F481E008950E94EA0CA5
:1019B0000C94EF0D0E94E80D58F00E94E10D40F0EC
:1019C00029F45F3F29F00C94D80D51110C94230E8B
:1019D0000C94DE0D0E94000E68F39923B1F3552399
:1019E00091F3951B550BBB27AA2762177307840732
:1019F00038F09F5F5F4F220F331F441FAA1FA9F3C8
:101A000035D00E2E3AF0E0E832D091505040E695B5
:101A1000001CCAF72BD0FE2F29D0660F771F881F16
:101A2000BB1F261737074807AB07B0E809F0BB0B09
:101A3000802DBF01FF2793585F4F3AF09E3F51051D
:101A400078F00C94D80D0C94230E5F3FE4F3983E8D
:101A5000D4F3869577956795B795F7959F5FC9F706
:101A6000880F911D9695879597F90895E1E0660F87
:101A7000771F881FBB1F621773078407BA0720F000
:101A8000621B730B840BBA0BEE1F88F7E095089569
:101A90000E94080E88F09F5798F0B92F9927B751E8
:101AA000B0F0E1F0660F771F881F991F1AF0BA9502
:101AB000C9F714C0B13091F00E94220EB1E0089530
:101AC0000C94220E672F782F8827B85F39F0B93F22
:101AD000CCF3869577956795B395D9F73EF49095B5
:101AE0008095709561957F4F8F4F9F4F0895E89433
:101AF00009C097FB3EF490958095709561957F4F56
:101B00008F4F9F4F9923A9F0F92F96E9BB27939503
:101B1000F695879577956795B795F111F8CFFAF413
:101B2000BB0F11F460FF1BC06F5F7F4F8F4F9F4F44
:101B300016C0882311F096E911C0772321F09EE8A2
:101B4000872F762F05C0662371F096E8862F70E008
:101B500060E02AF09A95660F771F881FDAF7880FE2
:101B60009695879597F90895990F0008550FAA0B38
:101B7000E0E8FEEF16161706E807F907C0F01216A0
:101B80001306E407F50798F0621B730B840B950BA3
:101B900039F40A2661F0232B242B252B21F40895F8
:101BA0000A2609F4A140A6958FEF811D811D089595
:101BB00097F99F6780E870E060E008959FEF80EC00
:101BC000089500240A9416161706180609060895A3
:101BD00000240A9412161306140605060895092E09
:101BE0000394000C11F4882352F0BB0F40F4BF2B78
:101BF00011F460FF04C06F5F7F4F8F4F9F4F0895B8
:101C000057FD9058440F551F59F05F3F71F04795AD
:101C1000880F97FB991F61F09F3F79F08795089592
:101C2000121613061406551FF2CF4695F1DF08C0B1
:101C3000161617061806991FF1CF869571056105CE
:101C400008940895E894BB2766277727CB0197F976
:101C500008950E94B40D08F48FEF08950E94410E7C
:101C60000C94EF0D0E94E10D38F00E94E80D20F079
:101C7000952311F00C94D80D0C94DE0D11240C94C6
:101C8000230E0E94000E70F3959FC1F3950F50E054
:101C9000551F629FF001729FBB27F00DB11D639F1E
:101CA000AA27F00DB11DAA1F649F6627B00DA11DC4
:101CB000661F829F2227B00DA11D621F739FB00D6A
:101CC000A11D621F839FA00D611D221F749F3327DA
:101CD000A00D611D231F849F600D211D822F762F73
:101CE0006A2F11249F5750409AF0F1F088234AF050
:101CF000EE0FFF1FBB1F661F771F881F91505040BC
:101D0000A9F79E3F510580F00C94D80D0C94230E3A
:101D10005F3FE4F3983ED4F3869577956795B79542
:101D2000F795E7959F5FC1F7FE2B880F911D96955C
:101D3000879597F908950E94B40D880B990B089523
:101D4000991B79E004C0991F961708F0961B881F0D
:101D50007A95C9F780950895EE0FFF1F0590F491CD
:081D6000E02D0994F894FFCF77
:101D68000000400014005400000000008C01EC004A
:101D78001901D9014A0128013C0100000000810332
:101D88005403970446034D034A0347030000000029
:101D98004406EC009704DF026E616E00696E66000F
:101DA8006F766600434F203A20000D0A00536D6F8E
:101DB8006B65203A2000434F3A20002070706D0078
:101DC800536D6F6B653A0041495220504F4C555442
:101DD8005445440057494E444F57204F50454E00F4
:00000001FF
